:020000040800F2
:1000000008FD0020450100089B370008A91E0008D4
:100010003137000835120008A98D000800000000E3
:10002000000000000000000000000000F18B00084C
:10003000151B00080000000057100008858C000800
:100040005B0100085B0100085B0100085B01000820
:100050005B0100085B010008191B00085B01000838
:100060005B0100085B0100085B0100085B01000800
:100070005B0100085B0100085B0100085B010008F0
:100080005B0100085B0100085B0100085B010008E0
:100090005B0100085B0100085B010008651B0008AC
:1000A0005B0100085B0100085B0100085B010008C0
:1000B000A18C00085B0100085B0100085B010008DF
:1000C0005B0100085B0100085B0100085B010008A0
:1000D0005B0100081D8D00085B0100085B01000842
:1000E0005B0100085B0100085B0100085B01000880
:1000F0005B0100085B0100085B0100085B01000870
:100100005B0100085B0100085B0100085B0100085F
:100110005B0100085B0100085B0100085B0100084F
:100120005B0100085B0100085B0100085B0100083F
:10013000DFF80CD000F0A0FD0048004729F20008CD
:1001400008FD002005480047FEE7FEE7FEE7FEE762
:10015000FEE7FEE7FEE7FEE7FEE7FEE73101000807
:1001600072B6704762B67047EFF3108072B6704790
:1001700080F31088704730BF704720BF7047B0FAD7
:1001800080F0704790FAA0F0B0FA80F0704790FAD3
:10019000A0F07047004870477CBC010810B50446C9
:1001A000FFF7F8FF0068005D00F0010010BD40EAB5
:1001B00001039B0703D009E008C9121F08C0042AE5
:1001C000FAD203E011F8013B00F8013B521EF9D2CC
:1001D0007047D2B201E000F8012B491EFBD27047F4
:1001E0000022F6E710B513460A4604461946FFF703
:1001F000F0FF204610BD421C10F8011B0029FBD166
:10020000801A704710B5002200E0521C835C8C5CA1
:10021000A34201D1002BF8D1D8B2E1B2401A10BDEF
:1002200030B504460020034600E05B1C934203D235
:10023000E05CCD5C401BF8D030BD10B5034600201B
:1002400004E0401C491C03F8014B521E012A02D94C
:100250000C78002CF5D122B100221A7001E0401C6C
:10026000491C0A78002AFAD110BD00000FB400B56D
:100270008DB010A909900B9000914FF0FF300A90BB
:1002800000200C9005480690054807906A4609A88A
:100290000F9900F02FFC0DB05DF814FB110B000856
:1002A0002F0B00082DE9FF5F1D464FF0FF3BD5E9FE
:1002B000014691465F464FF00008A9697F1C0198EE
:1002C0008847296A824688470028F6D1BAF1FF3F5D
:1002D0000CD024F4C064002E19DD600614D5BAF1E8
:1002E0002B0F09D0BAF12D0F0ED103E0584604B000
:1002F000BDE8F09F44F48064A9697F1C0198884799
:10030000761E8246002E02DDBAF1300F03D0B9F11D
:10031000000F26D032E0A969761E44F400747F1CD9
:10032000019888478246002E05DDBAF1780F06D085
:10033000BAF1580F03D0B9F1000F10D01EE0B9F197
:10034000000F02D0B9F1100F18D1A969761E24F45C
:1003500000747F1C019888478246102002E0082024
:1003600000E00A20814609E008FB0908A969761E19
:1003700044F400747F1C019888478246002E05DDF6
:100380004946504600F0A1FB0028EDDAE9690198E2
:100390008847A00502D46FF00100A8E7E00725D147
:1003A000600613D5600502D5C8F1000000E04046A4
:1003B00029680A1D2A600968220501D5087015E020
:1003C000220701D5088011E008600FE02868011DB0
:1003D00029600068210502D580F8008006E0210729
:1003E00002D5A0F8008001E0C0F8008038467EE722
:1003F0002DE9FF5FD2E901A74FF000089169994606
:100400001446DDF838B0464601988847054659EA53
:100410000B0005D009E0A169761C019888470546C4
:10042000216A284688470028F5D1681C03D05FEA76
:10043000CA7005D015E04FF0FF3004B0BDE8F09F62
:100440002068011D2160D0F800800AE05FEACA70D0
:1004500001D108F8015BA169761C7F1E01988847CD
:100460000546002F1ADD681C18D0B9F1000F0DD019
:10047000E81705EBD060421120F01F0059F8221058
:100480002A1A012090400142E0D107E0BBF1000FA1
:10049000DCD1216A284688470028D7D0E169019835
:1004A0008847BBF1000F07D1002E05DD5FEACA7057
:1004B00002D1002188F80010A068B84203DDBBF12A
:1004C000000F03D017B16FF00100B6E73046B4E774
:1004D000F0B480EA0102D40F4200B2EB410F02D225
:1004E0000246084611464A0042D0C30DDDB2C1F3B0
:1004F000C752AD1A202D35DAC1F3160141F40002BE
:1005000004B15242C5F1200602FA06F12A41104414
:10051000B3EBD05F23D0C4B1012DA0EBC35009DCF5
:10052000F0BC4FF0004202EAC352DBB200F500001B
:1005300000F017BB400000F1807000EBC350A0F149
:10054000807040EAD170490009E0490841EAC07171
:10055000A0EBC35000F50000400800EBC350F0BC16
:1005600000F0F6BA6142012202EB4101001BF6E7FE
:10057000F0BC704781F00041AAE780F00040A7E797
:1005800080EA010210B502F00043400022D04A0088
:100590001FD0010E01EB1261C0F35600C2F35602E8
:1005A00040F4000042F40002A0FB022000047F3966
:1005B000140400D0401C50EA124001D44000491EEF
:1005C000C2B20C0604EBD010401C4008802A02D0B6
:1005D00003E0002010BD20F00100002900DA002017
:1005E000184310BD30B480EA010202F0004530F03B
:1005F000004221F0004013D090B1C30DD40DC2F3DE
:100600001601C0F31600E41A41F4000140F40002A0
:100610007D34914201D3641C00E04900002C02DAD1
:1006200030BC002070474FF400000023914201D3FA
:10063000891A034340084FEA4101F7D151B1914271
:1006400002D14FF0004105E002D24FF0010101E07C
:100650006FF0010103EBC450284430BC00F078BABD
:100660002DE9FE4F804681EA0300C00F0C46009042
:1006700021F0004123F00045B8EB0200A94105D26A
:100680004046214690461C460B46024623F0004059
:10069000104347D0270DC7F30A00C3F30A51029055
:1006A000401A019040286BDAC3F3130040F4801B1A
:1006B0000098924620B10023D2EB030A63EB0B0BA8
:1006C00001985946C0F14002504600F0CDF9064667
:1006D0000D4650465946019A00F0E5F910EB080026
:1006E0006141002487EA115284EAE7731A4340D03B
:1006F000009A62B3019A012A4FEA075215DC001BE7
:1007000061EB02014FF0004202EA0752CDE90042DC
:10071000001C41F5801132462B4600F05FFA03B011
:10072000BDE8F08F40462146F9E7001B61EB02016E
:10073000001C41F5801300185B412018A2F500173A
:1007400047EB030140EAD570B6196D4111E06D0821
:100750004FEA360645EAC0754FEA0752001B61EBC7
:100760000201001C41F5801149084FEA30000019D0
:10077000514132462B4603B0BDE8F04F00F01FBA9E
:100780000098012240000023D0EB020263EBE073EB
:10079000009821464FEAE074B8EB000061EB0401D9
:1007A000E9E783F000435BE781F0004158E72DE97A
:1007B000FE4F81EA030404F0004421F0004100945C
:1007C0004FF0000B23F0004350EA01045ED052EAE0
:1007D00003045BD0C3F30A54C1F30A552C44A4F2BA
:1007E000F3340194A0FB0254C1F3130141F48011CE
:1007F000C3F3130343F4801301FB024400FB034ED5
:10080000840A970A44EA815447EA8357A4FB07689D
:1008100002958D0A05FB07854FEA932C04FB0C54C7
:100820002705029D4FEA065847EA1637B5EB08053B
:100830006EEB070C870E920E47EA811742EA83128D
:10084000A7FB0201B6EB0B0164EB00042B0D43EA9E
:100850000C335E1844EB1C50DA465146E7FB0201AC
:10086000C5F313044FEA0B3343EA14534FEA04323F
:10087000019C43EA0603A4F10C040294009CCDE918
:1008800000B400F0ABF903B0BDE8F08F00200146E2
:10089000F9E72DE9F04D81EA030404F0004B21F063
:1008A000004514464FF0000A23F0004150EA0502CB
:1008B00020D054EA01021DD0C5F30A570246C5F301
:1008C0001303C1F31300C1F30A5640F4801543F437
:1008D0008013A7EB0608101BD64608F2FD3873EB11
:1008E000050002D308F1010801E092185B41B8F15C
:1008F000000F03DA00200146BDE8F08D00204FF420
:100900008011064684460EE0171B73EB050705D3DE
:10091000121B63EB050306434CEA010C49084FEA3E
:10092000300092185B4150EA0107EDD152EA030012
:1009300012D082EA040083EA0501084305D0101BA7
:10094000AB4106D20122002306E000224FF0004313
:1009500002E06FF0010253101AEB06004CEB085155
:1009600010EB0A0041EB0B01BDE8F04D00F027B998
:1009700096230022114600F0F4B820F00040C10D8B
:10098000C0F3160040F400007F2901DA0020704710
:10099000962903DCC1F19601C8407047963988401A
:1009A000704770B5C1F30A5201F000450024C1F34D
:1009B000130140F2FF3341F480119A4201DA002022
:1009C00070BD40F233439A42A2F2334203DC5242FA
:1009D00000F059F800E090402C43F1D0404270BD47
:1009E00000F0004230F000400AD0C10D01F5607106
:1009F000C0F3160042EA0151C20840071143704794
:100A00000020014670472DE9F05F05460020924620
:100A10009B4688460646814640241BE028464146C0
:100A20004746224600F02FF853465A46C01A9141D5
:100A300010D311461846224600F016F82D1A67EB1F
:100A400001084F4622460120002100F00DF817EB67
:100A500000094E41201EA4F10104DFDC4846314666
:100A60002A464346BDE8F09F202A04DB203A00FADC
:100A700002F1002070479140C2F1200320FA03F3F5
:100A8000194390407047202A04DB203A21FA02F0F3
:100A90000021704721FA02F3D040C2F120029140B8
:100AA000084319467047202A06DBCB17203A41FA43
:100AB00002F043EAE07306E041FA02F3D040C2F1EB
:100AC000200291400843194670473A2800D2303836
:100AD00020F02002412A01D3A2F13700884201D33D
:100AE0004FF0FF3070470000026811441378016036
:100AF00018467047D16004495161044911620021D0
:100B00001161114600F0CAB8E90A00089D01000809
:100B1000426842B1016811F8013B23B1521EC0E99D
:100B20000012184670470121C160881E7047426854
:100B30005AB1C368016843B983688B4205D0491E26
:100B4000521CC0E90012002070474FF0FF30704780
:100B50000029A8BF7047401C490008BF20F00100D1
:100B6000704710B4B0FA80FC00FA0CF050EA0104AF
:100B700004BF10BC704749B1CCF1200421FA04F441
:100B800011FA0CF118BF012121430843A3EB0C011A
:100B9000CB1D4FEA00614FEA102042BF002010BC7D
:100BA000704700EBC35010440029A4BF10BC70472D
:100BB000401C490008BF20F0010010BC704710B570
:100BC000141E73F1000408DA401C41F10001921870
:100BD0005B411A4301D120F0010010BD2DE9F04D19
:100BE00092469B4611B1B1FA81F202E0B0FA80F26E
:100BF00020329046FFF738FF04460F4640EA0A00CD
:100C000041EA0B0153465A46084313D0114653EAB2
:100C1000010019D0C8F140025046FFF734FF0546E5
:100C20000E46504659464246FFF71EFF084305D080
:100C3000012004E020463946BDE8F08D0020054340
:100C400046EAE0762C4337430A986305E40AA0EBB2
:100C500008000022FD0A44EA47540A3002D5002069
:100C60000146E9E7010510196941DDE90845001968
:100C70006941BDE8F04DA2E7064C074D06E0E0688B
:100C800040F0010394E8070098471034AC42F6D3D3
:100C9000FFF752FAE4BF010804C001082DE9F34F41
:100CA0008BB04FF0000801F10C000C464FF0010B27
:100CB00046460DF1080A01906269012101989047AA
:100CC00005002DD0252D2CD0216A8847C0B162693E
:100CD000012101989047216A88470028F7D1411ED9
:100CE00062690198904700E0761CA1690B988847DB
:100CF000216A88470028F7D1E1690B988847DBE72C
:100D0000A1690B9888470746A84201D1761CD3E712
:100D1000E1690B9888477F1C02D1B8F1000F6FD0B2
:100D200046E1002762693D463946019890472A28E6
:100D300004D162690121019890470125DFF884926E
:100D40006269012101989047A0F130010A290AD275
:100D50004F45E5DC07EB870100EB4107303FDFD46F
:100D600045F01005ECE7E90601D46FF000476C2868
:100D70000AD04C2814D0682815D06A280DD07428C1
:100D80001CD07A281AD01DE0626901210198904791
:100D90006C2802D045F0040514E045F002050DE092
:100DA00045F020050AE06269012101989047682812
:100DB00002D045F0080505E045F4006562690121AF
:100DC00001989047C4E9015765283DD019DC58289F
:100DD0007AD00CDC452837D004DC252826D04128E1
:100DE00031D131E046282FD047282CD12CE05B2888
:100DF00077D0612828D063287CD0642823D15AE09A
:100E0000D0E06F2848D008DC66281DD067281BD0AA
:100E1000692821D06E2816D127E0702845D0732884
:100E200068D0752847D078280DD14DE0A1690B987E
:100E30008847054625283FF469AFE1690B98884744
:100E40006D1C3FF46AAFB3E023466A466FF00100C1
:100E50000B99AFF300809EE045F040006060A8076A
:100E600023464FF0000236D43EE0E8077FF447AF58
:100E70002068011D21600068290501D506701BE767
:100E8000290701D5068017E7A90703D5F117C0E99F
:100E9000006111E706600FE745F040006060A807B9
:100EA00023464FF0080216D41EE040F60E0125EA54
:100EB0000100606016E045F040006060A80723462E
:100EC0004FF00A0207D40FE045F040006060A80729
:100ED00008D5234610226FF001000B99AFF3008074
:100EE00059E007E0234610226FF001000B99FFF74D
:100EF000D9F950E04FF000094F464B46632802D025
:100F00005B2806D040E0E80601D40120A06001275C
:100F10003AE062690121019890475E2805D14FF0BF
:100F200001096269494601989047216939B9002150
:100F30000A46534643F82120491C0829FADBB0B37E
:100F4000216969B9C11700EBD16253110AEB830122
:100F500022F01F02821A01200B68904003430B60AD
:100F600062690121019890475D28E8D1B9F1000F2D
:100F700009D00020514651F82020D24341F82020CA
:100F8000401C0828F7DB02AB224600976FF00100F7
:100F90000B99FFF72DFA00280CDA401C08D1BBF1A1
:100FA000000F05D04FF0FF300DB0BDE8F08FFFE728
:100FB0004046F9E7E90701D108F1010806444FF07E
:100FC000000B79E6CCCCCC0C70B58C1810F8015B1A
:100FD00015F0070301D110F8013B2A1106D110F8D2
:100FE000012B03E010F8016B01F8016B5B1EF9D1D6
:100FF0002B0705D40023521E0DD401F8013BFAE75C
:1010000010F8013BCB1A921C03E013F8015B01F8C6
:10101000015B521EF9D5A142D8D3002070BD00005B
:101020001D484FF6FF710170002080F309881B48AE
:10103000016881F308881A484FF08051016062B658
:10104000FEE717484FF080510160704714484FF099
:1010500080510160704772B6EFF3098028B12038E3
:1010600080E8F00F0F490968086000B50E48804716
:101070005DF804EB0D480E490A78027009480D49E5
:101080000A680260106890E8F00F203080F3098849
:101090004EF0040E62B6704722ED00E0D000002052
:1010A00004ED00E0C80000205D5900086600002043
:1010B00067000020CC0000204C48806940F004000C
:1010C0004A4988614A48006820F0F00048490860B1
:1010D0004648806940F40070444988610846C06809
:1010E00040F40070C8600846C06820F40070C86012
:1010F0000846406820F4404048600846406840F494
:10110000004048603B4800683B4908403949086056
:101110000846006808600846006820F4807008608F
:10112000081D006820F00200091D086008460068DC
:1011300020F4602008600846006840F460200860E1
:101140000846006840F4801008600846006820F4F3
:10115000006008600846006840F400000860254808
:101160002830006820F470002249283108600846C1
:10117000006808601F480C30006820F003001D491B
:101180000C3108600846006840F038000860081F0D
:10119000006820F4E010091F08600846006840F469
:1011A000E0100860081F006840F00100091F086097
:1011B0000846006840F00800086000BF0D48001DA8
:1011C000006800F008000028F8D10A48001D0068F7
:1011D00040F004000749091D086000BF0548001DD4
:1011E000006800F004000028F8D1704700100240A9
:1011F0000008014004240140FFFFF0000A48806914
:1012000040F00800084988610848006820F00F0095
:10121000064908600846006840F0030008600020A6
:10122000034908607047000000100240040C0140B0
:10123000A081214200BFFEE710B500F019F810BDF3
:1012400010B5002400BF00BFFEF78EFF044600BFAC
:1012500000BF1021054802F06DFA00BF00BF204614
:10126000FEF786FF00BF00BF10BD00009004002005
:1012700010B5FFF7E5FF10BD00B5282000F004FA17
:101280000246292000F000FA42EA00222A2000F05B
:10129000FBF942EA00422B2000F0F6F942EA006234
:1012A000104600BD70B500241A480078082811D1F6
:1012B00008E0642008F026F9601CC4B2642C01DD4B
:1012C000FF2070BD012000F0A5F900F020000028EB
:1012D000EFD010E008E0642008F014F9601CC4B2FC
:1012E000642C01DDFF20ECE7012000F0CDF900F0D7
:1012F00040000028EFD0012000F0C6F9022101EAE9
:10130000A015002000F0C0F9C0F3C0000543284636
:10131000D7E700007004002010B59648406940F4FB
:101320008070944948610846806940F020008861D7
:101330000846806940F0400088610846806940F0B6
:10134000800088610846806940F4807088618A481E
:1013500000688A490840884908600846006888494A
:10136000084385490860081F00688649084082498B
:10137000091F086008460068834908437E49091F21
:1013800008608248006800208049086008460068BC
:1013900040F0BB300860081F006820F07040091F53
:1013A00008600846006840F03040086078480068EF
:1013B00020F47000764908600846006840F4300068
:1013C00008607448406820F0F000724948600846A0
:1013D000406840F0B00048600846006820F0706047
:1013E00008600846006840F0006008600846C06871
:1013F00040F04000C86001220621084600F0D6FBFC
:10140000022317220021084602F038F900204FF08D
:1014100020418860C860604908604FF020408068C3
:1014200040F480504FF0204188600846806840F0CA
:10143000100088600846C06840F44070C8600846E4
:10144000C068C8600846C06840F00100C8606FF01E
:101450007040C1F80C010846806840F001008860C7
:101460004E48046808204E490870002048808120BA
:101470004870022008710021494841718171210C96
:10148000C171210A01724472FF2045498872FF210F
:101490004348C172017341738173C1730174417414
:1014A00000F004FA642008F02DF8FFF7E5FE04468A
:1014B00021463CA007F07AFC3E48844201D001203E
:1014C00010BD3749087800F0AFFA0021084600F057
:1014D000D9FA0021022000F0D5FA3F21082000F0BF
:1014E000D1FA3821092000F0CDFA00210A2000F0BD
:1014F000C9FA00212F2000F0C5FA2C21012000F0AC
:10150000C1FA0F21FE2000F0BDFA80212D2000F04D
:10151000B9FA2348001D00F06BFA21480A3000F0A8
:1015200075FA3121052000F0ADFA8021FF2000F08E
:10153000A9FAFFF7B7FE0446FF2C11D004F0010012
:1015400008B11DA000E01EA0024604F0020008B190
:101550000A2000E0642001461BA007F027FC02E0FF
:1015600024A007F023FC0E484178FF2000F08AFAFF
:101570000020A5E7001002400414014000F0FF0025
:10158000BB0B00BB00FF000FBB00BB3004180140C9
:10159000041C0140002001400C0100A0E8F7FF1FDF
:1015A00070040020444D393030302049443A25231E
:1015B000780D0A00460A009046756C6C0000000029
:1015C00048616C6600000000444D393030302053D3
:1015D000706565643A25644D6270732C4475706C57
:1015E00065783A2573206475706C6578206D6F643A
:1015F000650D0A00444D3930303020457374616206
:101600006C697368204C696E6B204661696C656417
:10161000210D0A0070B5044644F040010C2000F092
:1016200031FA0C210B2000F02DFA0A2007F06AFF96
:1016300000210B2000F026FA0D2000F025F80246CC
:101640000E2000F021F842EA002085B2284670BD45
:1016500070B505460C4645F040010C2000F012FA2A
:10166000E1B20D2000F00EFA210A0E2000F00AFA75
:101670000A210B2000F006FA322007F043FF002178
:101680000B2000F0FFF970BD0146034801804FF0C8
:10169000C840B0F800017047FE0000642DE9F04139
:1016A00086B0002402A800231A4619460090574825
:1016B00002F0BCFA00BFF020FFF7E6FF54480088B4
:1016C000C7B2002F7ED0012F0ED952A007F06EFBBB
:1016D0000021052000F0D6F98021FE2000F0D2F98B
:1016E000204606B0BDE8F081F2204949891E0880F5
:1016F0004FF0C840B0F800010590881C00880490A5
:101700000322BDF8101010460FF02AFB0446A4B1C6
:1017100025460FE0D5F804806E8908E04FF0C840F8
:10172000B0F80001A8F8000008F10208B61E002E6B
:10173000F4DC2D68002DEDD112E0BDF810103EA0B4
:1017400007F034FB0DF10C08BDF8106006E04FF017
:10175000C840B0F80001A8F80000B61E002EF6D16F
:10176000BDF8140000F43F4040B9BDF81000402817
:1017700004DBBDF81000B0F5C06F3FDDBDF81410FC
:1017800033A007F013FBBDF8140000F4807010B113
:1017900033A007F00BFBBDF8140000F4007010B18B
:1017A00033A007F003FBBDF8140000F4004010B1B3
:1017B00033A007F0FBFABDF81000B0F5C06F0BDDE9
:1017C00034A000E00EE007F0F1FA0121002000F063
:1017D00059F9052007F096FE14B120460FF0D2FF0C
:1017E000002468E70221FE2000F04CF981202E49F8
:1017F000487008464178FF2000F044F902AA002111
:10180000024802F07FFB20466BE70000C4CE0020B8
:1018100000010064646D393030302072783A2072F3
:1018200078206572726F722C2073746F70206465FB
:10183000766963650D0A000070627566C4DAB4E605
:10184000C9EAC7EBCAA7B0DC3A25640D0A0000005C
:1018500072785F7374617475733A2523780D0A008A
:101860007278206669666F206572726F720D0A0069
:10187000727820637263206572726F720D0A0000C5
:101880007278206C656E677468206572726F720D75
:101890000A0000007278206C656E67746820746FAF
:1018A0006F206269670D0A007004002010B50020E7
:1018B0001B4908600A2007F025FE01201949C1F8DC
:1018C0009C01642007F01EFE01211E2000F0DAF8C2
:1018D00000211F2000F0D6F80321002000F0D2F8EC
:1018E00000BF192007F00EFE0020FFF7CDFE00F02C
:1018F00001000028F5D10021084600F0C3F80321BB
:10190000002000F0BFF800BF192007F0FBFD002009
:10191000FFF7BAFE00F001000028F5D110BD00006D
:101920009C81224200802242FEB504460027002608
:1019300001A800231A46194600902A4802F076F9B9
:101940008021FF2000F09EF8F820274908802546D6
:101950001BE06889B84216DD3846791C8FB26A6888
:10196000125C3046711CCEB202A90A54022E0CD170
:101970009DF808009DF8091040EA01201A49891CC9
:101980000880002601E02D680027002DE1D1012EFE
:1019900004D19DF808001449891C0880217AFC2094
:1019A00000F070F82089010AFD2000F06BF8012199
:1019B000022000F067F800BFFE20FFF765FE00F090
:1019C00002000028F8D00221FE2000F05BF8074852
:1019D0004178FF2000F056F801AA0021014802F0EA
:1019E00091FAFEBDC4CE0020FE0000647004002009
:1019F00010B50446002306E0E15C03F1100000F09E
:101A000041F8581CC3B2062BF6DB10BD10B50446D6
:101A1000002306E0E15C03F1160000F033F8581CE7
:101A2000C3B2082BF6DB10BD70B50646092E1BD2DB
:101A3000DFE806F0050C1A1A08101A1A150000241F
:101A4000212511E04FF4807441250DE04FF400543E
:101A5000812509E04FF4045440F2011504E04FF4ED
:101A6000805440F2E11500BF00BF21460020FFF77F
:101A7000EFFD29460420FFF7EBFD00211F2000F0B9
:101A800001F870BD034A10804FF0C842A2F800115F
:101A900070470000FE00006438B511480588FE203C
:101AA000FFF7F2FD04462146FE20FFF7EBFF04F0AE
:101AB000040010B10BA007F079F904F0080010B190
:101AC0000BA007F073F904F0010028B16A464FF447
:101AD00000710F4803F03CF90148058038BD000053
:101AE000FE0000646F766572666C6F77200D0A00E9
:101AF0006F766572666C6F7720636F756E74657252
:101B0000206F766572666C6F77200D0A000000000A
:101B10009CCE0020704700000EB501F09DFF02A88A
:101B200000214FF4FA730A46CDE90010084603F08D
:101B3000D1FF09480068012808D108480068012839
:101B400002D011F0B7F801E010F0D2FB01200449F7
:101B5000086001F097FF0EBD00012142A4030020A0
:101B60001404014010B501F077FF402005490860DA
:101B700001E0FFF791FF044800680028F9D001F068
:101B800081FF10BD140401401801244210B500F07B
:101B90008DF902220021084600F008F801230622F0
:101BA0000021084601F06AFD10BD000070B5044632
:101BB0000B46CE1701EB9676C6F38700CE1701EBE6
:101BC0009676B610A1EB8606B606350E1C4B9B69C1
:101BD00043F001031A4EB3614FEAB63353F8203095
:101BE0000F26AE40B343174E46F82030334653F825
:101BF000203004FA05F61E43124B43F82060124BC6
:101C00001B6801268E4033430F4E336002F0010300
:101C100043B10D4B0C331B6801268E4033430A4EF3
:101C20000C36336002F0020343B1074B08331E68E1
:101C300001238B401E43044B08331E6070BD00001F
:101C40000010024008000140000401404D48406976
:101C500040F480704B4948610846806940F020009C
:101C600088610846806940F04000886108468069C4
:101C700040F0800088610846806940F48070886187
:101C8000414800680020404908600846006840F06C
:101C9000BB300860081F006800F0FF20091F0860C3
:101CA0000846006840F0BB10086038480068002013
:101CB000364908600846006840F0BB300860081FDD
:101CC0000068334908403149091F08600846006828
:101CD000304908432D49091F08602F48006880B229
:101CE0002D490860084600682C4908432A490860C5
:101CF000081F006800F07F40091F08600846006860
:101D0000274908432449091F08602648406820F4F1
:101D10007060244948600846406840F4306048607C
:101D20000846006800F07F400860084600681C49CB
:101D300008431C49086000204FF0204108614861B9
:101D400019490860C806006940F48050C906086156
:101D50000846006940F0100008610846406940F4F8
:101D6000807048610846406948610846406948619A
:101D70006FF07040C1F814010846006940F001009E
:101D8000086170470010024004140140041801402B
:101D900000FFFF0FBB0000B0041C01400000BBBBF4
:101DA000BBBBBB0000200140140100A001460F484E
:101DB000006820F01F000D4A1060104600680843BC
:101DC00010600A482C38006840F48000074A2C3A1A
:101DD000106000BF05483438006800F00200002899
:101DE000F8D002481830006880B2704734240140AF
:101DF0002DE9F04107460C460025002608E038464C
:101E0000FFF7D4FF0544052007F07CFB701CC6B229
:101E1000A642F4DBB5FBF4F080B2BDE8F08100002F
:101E20002DE9F05F14211020FFF7E2FF83465846AA
:101E3000FEF79EFD8046FEF7D3FD06464FF0663264
:101E4000124BFEF7B4FC04460D4622462B461048C2
:101E50001049FEF7A6FC80460F4A104BFEF719FD0D
:101E6000064600220E4BFEF7FBFB04460D46002201
:101E70000C4B20462946FEF79AFC0646FEF791FDDC
:101E80000FFA80FA5046BDE8F09F000066664A3FB0
:101E9000E17A14AE47E1F63F22FDF675E09C713F12
:101EA000000039400000594000BFFEE70848806943
:101EB00040F00400064988610648006820F00F00E1
:101EC000044908600846006840F008000860704750
:101ED000001002400008014070B504460026094881
:101EE0000588408845430021084601F0F1F901F0DA
:101EF00047FB00BF02E004480480761CAE42FAD3E0
:101F000070BD0000820400200008006C10B504467B
:101F1000BCB9002018498871F02008804FF4A070E7
:101F200048804FF4305008814FF4285048814FF4D6
:101F30002C5088814FF4F07008804FF4487048802E
:101F400016E001200C4988714FF4A0700880F02041
:101F500048804FF4305008814FF4285048814FF4A6
:101F60002C5088814FF4487008804FF4F0704880FE
:101F7000002001F0E7F810BD8204002010B50346F0
:101F80000C461349488901F0F5FA181201F0ECFAF1
:101F90000F494989491C88B201F0ECFAD8B201F026
:101FA000E3FA0B49888901F0E5FA201201F0DCFA26
:101FB00007498989491C88B201F0DCFAE0B201F0D6
:101FC000D3FA0348008903490880881C028010BDA9
:101FD00082040020FE07006C2DE9F04F05460E46F6
:101FE00017469846DDF824A04FF0000B781B401CE4
:101FF0001FFA80FB344613E02146284601F068F9B9
:1020000001F0BEFA4FF0000906E00748A0F800A072
:1020100009F101001FFA80F9D945F6DB601C84B292
:102020004445E9DDBDE8F08F0008006C10B5FE48BE
:10203000406940F48070FC4948610846806940F07E
:10204000080088610846806940F0200088610846E1
:10205000806940F0400088610846806940F48070E3
:102060008861F248006820F00F00F04908600846D7
:10207000006840F003000860ED480068ED49084042
:10208000EB49086008460068EB490843E8490860E6
:10209000081F006800F0FF20091F0860084600685C
:1020A00040F0BB100860E54800680020E349086084
:1020B0000846006840F0BB300860081F006820F048
:1020C0007040091F08600846006840F03040086012
:1020D000DB48406820F47020D949486008464068D1
:1020E00040F4302048600846006820F00F00086087
:1020F0000846006840F00B00086000204FF02041C7
:102100008861C861CF4908604FF02040806940F481
:1021100080504FF0204188610846806940F480403B
:1021200088610846806940F0100088610846C069EF
:10213000C8610846C06940F00100C8610846C0692E
:1021400040F47060C861BF480068C1F81C01BD4818
:102150000068C1F81C010846D0F81C0140F440702A
:10216000C1F81C010846806940F0010088613220F6
:1021700007F0C8F94FF45A4001F0FCF900F0D8FF1D
:10218000B14988804FF45B4001F0F4F900F0D0FFD2
:10219000AD498880084680884FF6FF7101EA00202B
:1021A000A94988804FF45C4001F0E4F900F0C0FFD9
:1021B000A54989880843A449888008468088B0F5E5
:1021C000004F02D145F2105088809F48808845F228
:1021D000105188427ED155214FF4704001F0DAF958
:1021E000AA214FF2010001F0D5F952214FF202006D
:1021F00001F0D0F908214FF2030001F0CBF90121E1
:102200004FF2040001F0C6F90D214FF4304001F007
:10221000C1F90D214BF2010001F0BCF90D214BF287
:10222000020001F0B7F934214FF4364001F0B2F961
:1022300034214BF2016001F0ADF934214BF2026020
:1022400001F0A8F90D214FF4314001F0A3F90D215F
:102250004BF2011001F09EF90D214BF2021001F03A
:1022600099F934214FF4374001F094F934214BF2BD
:10227000017001F08FF934214BF2027001F08AF9FC
:1022800000214FF4324001F085F900214BF201208A
:1022900001F080F900214BF2022001F07BF92421AA
:1022A0004FF4384001F076F924214BF6010001F09B
:1022B00071F924214BF6020001F06CF901214FF471
:1022C0003F4001F067F90F214FF4334001F062F90C
:1022D0000F2100E0FEE34BF2013001F05BF90F212A
:1022E0004BF2023001F056F934214FF4394001F03D
:1022F00051F934214BF6011001F04CF934214BF621
:10230000021001F047F908214FF4354001F042F97D
:1023100008214BF2015001F03DF908214BF2025027
:1023200001F038F903214FF4424001F033F9242140
:102330004FF43A4001F02EF924214BF6012001F030
:1023400029F924214BF6022001F024F900214FF451
:102350003C4001F01FF978214BF6014001F01AF9D9
:1023600000214BF6024001F015F900214FF43D40E9
:1023700001F010F978214BF6015001F00BF9002122
:102380004BF6025001F006F900214FF43E4001F0F7
:1023900001F964214BF6016001F0FCF800214FF4D3
:1023A000514001F0F7F833214DF2011001F0F2F83D
:1023B00000214DF2021001F0EDF834214DF203102E
:1023C00001F0E8F800214DF2041001F0E3F83A21A1
:1023D0004DF2051001F0DEF800214DF2061001F07B
:1023E000D9F84A214DF2071001F0D4F800214DF23E
:1023F000081001F0CFF85C214DF2091001F0CAF885
:1024000000214DF20A1001F0C5F881214DF20B10A8
:1024100001F0C0F800214DF20C1001F0BBF8A6212C
:102420004DF20D1012E0000000100240000C0140BF
:102430000414014000F0FF00BB0B00BB0418014076
:10244000002001401C0100A08204002001F0A2F83D
:1024500000214DF20E1001F09DF8E5214DF20F1014
:1024600001F098F801214DF2101001F093F81321BA
:102470004DF2111001F08EF801214DF2121001F011
:1024800089F854214DF2131001F084F801214DF226
:10249000141001F07FF882214DF2151001F07AF846
:1024A00001214DF2161001F075F8CA214DF21710F6
:1024B00001F070F802214DF2181001F06BF80021C4
:1024C0004DF2191001F066F802214DF21A1001F0D8
:1024D00061F801214DF21B1001F05CF802214DF270
:1024E0001C1001F057F834214DF21D1001F052F884
:1024F00002214DF21E1001F04DF867214DF21F1020
:1025000001F048F802214DF2201001F043F8842137
:102510004DF2211001F03EF802214DF2221001F09F
:1025200039F8A4214DF2231001F034F802214DF2C4
:10253000241001F02FF8B7214DF2251001F02AF8F0
:1025400002214DF2261001F025F8CF214DF227107F
:1025500001F020F802214DF2281001F01BF8DE21D5
:102560004DF2291001F016F802214DF22A1001F067
:1025700011F8F2214DF22B1001F00CF802214DF26E
:102580002C1001F007F8FE214DF22D1001F002F899
:1025900003214DF22E1000F0FDFF10214DF22F10FF
:1025A00000F0F8FF03214DF2301000F0F3FF33216B
:1025B0004DF2311000F0EEFF03214DF2321000F029
:1025C000E9FF6D214DF2331000F0E4FF00214FF4DC
:1025D000524000F0DFFF33214DF2012000F0DAFF1E
:1025E00000214DF2022000F0D5FF34214DF20320EE
:1025F00000F0D0FF00214DF2042000F0CBFF3A2183
:102600004DF2052000F0C6FF00214DF2062000F03B
:10261000C1FF4A214DF2072000F0BCFF00214DF21E
:10262000082000F0B7FF5C214DF2092000F0B2FF56
:1026300000214DF20A2000F0ADFF81214DF20B2068
:1026400000F0A8FF00214DF20C2000F0A3FFA6210E
:102650004DF20D2000F09EFF00214DF20E2000F003
:1026600099FFE5214DF20F2000F094FF01214DF27A
:10267000102000F08FFF13214DF2112000F08AFF8F
:1026800001214DF2122000F085FF54214DF213205C
:1026900000F080FF01214DF2142000F07BFF822129
:1026A0004DF2152000F076FF01214DF2162000F0CA
:1026B00071FFCA214DF2172000F06CFF02214DF28C
:1026C000182000F067FF00214DF2192000F062FF92
:1026D00002214DF21A2000F05DFF01214DF21B2076
:1026E00000F058FF02214DF21C2000F053FF34216E
:1026F0004DF21D2000F04EFF02214DF21E2000F091
:1027000049FF67214DF21F2000F044FF02214DF2E6
:10271000202000F03FFF84214DF2212000F03AFFFD
:1027200002214DF2222000F035FFA4214DF223209A
:1027300000F030FF02214DF2242000F02BFFB721E2
:102740004DF2252000F026FF02214DF2262000F058
:1027500021FFCF214DF2272000F01CFF02214DF276
:10276000282000F017FFDE214DF2292000F012FF93
:1027700002214DF22A2000F00DFFF2214DF22B2014
:1027800000F008FF02214DF22C2000F003FFFE2193
:102790004DF22D2000F0FEFE03214DF22E2000F020
:1027A000F9FE10214DF22F2000F0F4FE03214DF22E
:1027B000302000F0EFFE33214DF2312000F0EAFE30
:1027C00003214DF2322000F0E5FE6D214DF2332061
:1027D00000F0E0FE00214FF4534000F0DBFE332117
:1027E0004DF2013000F0D6FE00214DF2023000F033
:1027F000D1FE34214DF2033000F0CCFE00214DF229
:10280000043000F0C7FE3A214DF2053000F0C2FE60
:1028100000214DF2063000F0BDFE4A214DF2073096
:1028200000F0B8FE00214DF2083000F0B3FE5C214C
:102830004DF2093000F0AEFE00214DF20A3000F0FA
:10284000A9FE81214DF20B3000F0A4FE00214DF2D3
:102850000C3000F09FFEA6214DF20D3000F09AFEE4
:1028600000214DF20E3000F095FEE5214DF20F30C3
:1028700000F090FE01214DF2103000F08BFE13218C
:102880004DF2113000F086FE01214DF2123000F0C1
:1028900081FE54214DF2133000F07CFE01214DF2F7
:1028A000143000F077FE82214DF2153000F072FEF8
:1028B00001214DF2163000F06DFECA214DF21730A5
:1028C00000F068FE02214DF2183000F063FE002196
:1028D0004DF2193000F05EFE02214DF21A3000F088
:1028E00059FE01214DF21B3000F054FE02214DF241
:1028F0001C3000F04FFE34214DF21D3000F04AFE36
:1029000002214DF21E3000F045FE67214DF21F30CE
:1029100000F040FE02214DF2203000F03BFE842109
:102920004DF2213000F036FE02214DF2223000F04F
:1029300031FEA4214DF2233000F02CFE02214DF295
:10294000243000F027FEB7214DF2253000F022FEA2
:1029500002214DF2263000F01DFECF214DF227302E
:1029600000F018FE02214DF2283000F013FEDE21A7
:102970004DF2293000F00EFE02214DF22A3000F017
:1029800009FEF2214DF22B3000F004FE02214DF23F
:102990002C3000F0FFFDFE214DF22D3000F0FAFD4D
:1029A00003214DF22E3000F0F5FD10214DF22F30B5
:1029B00000F0F0FD03214DF2303000F0EBFD33214B
:1029C0004DF2313000F0E6FD03214DF2323000F0DF
:1029D000E1FD6D214DF2333000F0DCFD00214FF4BC
:1029E000544000F0D7FD33214DF2014000F0D2FDFC
:1029F00000214DF2024000F0CDFD34214DF20340A4
:102A000000F0C8FD00214DF2044000F0C3FD3A2162
:102A10004DF2054000F0BEFD00214DF2064000F0F1
:102A2000B9FD4A214DF2074000F0B4FD00214DF2FE
:102A3000084000F0AFFD5C214DF2094000F0AAFD16
:102A400000214DF20A4000F0A5FD81214DF20B401E
:102A500000F0A0FD00214DF20C4000F09BFDA621EE
:102A60004DF20D4000F096FD00214DF20E4000F0B9
:102A700091FDE5214DF20F4000F08CFD01214DF25A
:102A8000104000F087FD13214DF2114000F082FD4F
:102A900001214DF2124000F07DFD54214DF2134012
:102AA00000F078FD01214DF2144000F073FD822109
:102AB0004DF2154000F06EFD01214DF2164000F080
:102AC00069FDCA214DF2174000F064FD02214DF26C
:102AD000184000E013E300F05DFD00214DF21940C5
:102AE00000F058FD02214DF21A4000F053FD012183
:102AF0004DF21B4000F04EFD02214DF21C4000F053
:102B000049FD34214DF21D4000F044FD02214DF2FB
:102B10001E4000F03FFD67214DF21F4000F03AFDDE
:102B200002214DF2204000F035FD84214DF221407C
:102B300000F030FD02214DF2224000F02BFDA421D7
:102B40004DF2234000F026FD02214DF2244000F01A
:102B500021FDB7214DF2254000F01CFD02214DF270
:102B6000264000F017FDCF214DF2274000F012FD66
:102B700002214DF2284000F00DFDDE214DF22940EA
:102B800000F008FD02214DF22A4000F003FDF22181
:102B90004DF22B4000F0FEFC02214DF22C4000F0E3
:102BA000F9FCFE214DF22D4000F0F4FC03214DF222
:102BB0002E4000F0EFFC10214DF22F4000F0EAFC17
:102BC00003214DF2304000F0E5FC33214DF231405D
:102BD00000F0E0FC03214DF2324000F0DBFC6D21FF
:102BE0004DF2334000F0D6FC00214FF4554000F088
:102BF000D1FC33214DF2015000F0CCFC00214DF20C
:102C0000025000F0C7FC34214DF2035000F0C2FC2A
:102C100000214DF2045000F0BDFC3A214DF2055068
:102C200000F0B8FC00214DF2065000F0B3FC4A2140
:102C30004DF2075000F0AEFC00214DF2085000F0BC
:102C4000A9FC5C214DF2095000F0A4FC00214DF2DA
:102C50000A5000F09FFC81214DF20B5000F09AFCCD
:102C600000214DF20C5000F095FCA6214DF20D50C4
:102C700000F090FC00214DF20E5000F08BFCE5219D
:102C80004DF20F5000F086FC01214DF2105000F083
:102C900081FC13214DF2115000F07CFC01214DF21A
:102CA000125000F077FC54214DF2135000F072FCEA
:102CB00001214DF2145000F06DFC82214DF21550AF
:102CC00000F068FC01214DF2165000F063FCCA21AF
:102CD0004DF2175000F05EFC02214DF2185000F04A
:102CE00059FC00214DF2195000F054FC02214DF224
:102CF0001A5000F04FFC01214DF21B5000F04AFC2D
:102D000002214DF21C5000F045FC34214DF21D50C3
:102D100000F040FC02214DF21E5000F03BFC672108
:102D20004DF21F5000F036FC02214DF2205000F011
:102D300031FC84214DF2215000F02CFC02214DF297
:102D4000225000F027FCA4214DF2235000F022FC79
:102D500002214DF2245000F01DFCB7214DF2255008
:102D600000F018FC02214DF2265000F013FCCF2198
:102D70004DF2275000F00EFC02214DF2285000F0D9
:102D800009FCDE214DF2295000F004FC02214DF235
:102D90002A5000F0FFFBF2214DF22B5000F0FAFB1D
:102DA00002214DF22C5000F0F5FBFE214DF22D508A
:102DB00000F0F0FB03214DF22E5000F0EBFB102150
:102DC0004DF22F5000F0E6FB03214DF2305000F0A1
:102DD000E1FB33214DF2315000F0DCFB03214DF2D9
:102DE000325000F0D7FB6D214DF2335000F0D2FB92
:102DF00000214FF4564000F0CDFB33214DF201602D
:102E000000F0C8FB00214DF2026000F0C3FB34214A
:102E10004DF2036000F0BEFB00214DF2046000F0B3
:102E2000B9FB3A214DF2056000F0B4FB00214DF2F0
:102E3000066000F0AFFB4A214DF2076000F0AAFBEC
:102E400000214DF2086000F0A5FB5C214DF2096005
:102E500000F0A0FB00214DF20A6000F09BFB8121F5
:102E60004DF20B6000F096FB00214DF20C6000F07B
:102E700091FBA6214DF20D6000F08CFB00214DF27C
:102E80000E6000F087FBE5214DF20F6000F082FB41
:102E900001214DF2106000F07DFB13214DF2116015
:102EA00000F078FB01214DF2126000F073FB542119
:102EB0004DF2136000F06EFB01214DF2146000F042
:102EC00069FB82214DF2156000F064FB01214DF297
:102ED000166000F05FFBCA214DF2176000F05AFB4C
:102EE00002214DF2186000F055FB00214DF21960EF
:102EF00000F050FB02214DF21A6000F04BFB012163
:102F00004DF21B6000F046FB02214DF21C6000F008
:102F100041FB34214DF21D6000F03CFB02214DF2DB
:102F20001E6000F037FB67214DF21F6000F032FB9E
:102F300002214DF2206000F02DFB84214DF2216032
:102F400000F028FB02214DF2226000F023FBA421B7
:102F50004DF2236000F01EFB02214DF2246000F0D0
:102F600019FBB7214DF2256000F014FB02214DF250
:102F7000266000F00FFBCF214DF2276000F00AFB26
:102F800002214DF2286000F005FBDE214DF22960A0
:102F900000F000FB02214DF22A6000F0FBFAF22162
:102FA0004DF22B6000F0F6FA02214DF22C6000F099
:102FB000F1FAFE214DF22D6000F0ECFA03214DF202
:102FC0002E6000F0E7FA10214DF22F6000F0E2FAD7
:102FD00003214DF2306000F0DDFA33214DF2316013
:102FE00000F0D8FA03214DF2326000F0D3FA6D21DF
:102FF0004DF2336000F0CEFA55214FF4704000F0EE
:10300000C9FAAA214FF2010000F0C4FA52214FF28E
:10301000020000F0BFFA08214FF2030000F0BAFAF4
:1030200000214FF2040000F0B5FACC214FF43140FA
:1030300000F0B0FA00214BF2011000F0ABFA0521CC
:103040004FF4364000F0A6FA70214FF4374000F0FC
:10305000A1FA70214BF2017000F09CFA01214FF4AB
:10306000384000F097FA03214BF6010000F092FA85
:1030700003214BF6020000F08DFA03214BF603000A
:1030800000F088FA02214FF43C4000F083FA00215E
:103090004BF6014000F07EFA00214BF6024000F0B2
:1030A00079FAD0214FF4494000F074FA02214CF62D
:1030B000011000F06FFA50214CF6021000F06AFA8D
:1030C00050214CF6031000F065FA50214CF6041024
:1030D00000F060FA00214FF4545000F05BFA5521E3
:1030E0004FF4685000F056FA4FF4885000F042FA5E
:1030F000782006F041FA4FF4245000F03BFA00200B
:10310000FEF704FF0120034908604FF6FF70FEF749
:10311000E3FE10BD8081214210B50246012000E08F
:1031200050430B00A1F10104E1B2F9D110BD000040
:1031300008B5034800880090BDF8000008BD0000F5
:103140000008006C70B50446002300265F488079B3
:10315000012824D15D48808846F6040188421ED0AB
:103160005A48808841F66311884218D0082C15D23D
:10317000DFE804F00406080A0C0E101206240DE025
:1031800007240BE0042409E0052407E0012405E0FE
:10319000002403E0032401E0022400BF00BF082C48
:1031A0001CD2DFE804F00406090C0F12151800BF4A
:1031B00014E043F0800311E043F040030EE043F0DD
:1031C000C0030BE043F0200308E043F0600305E098
:1031D00043F0A00302E043F0E00300BF00BF4FF460
:1031E00058561946304600F0D5F903F0200068B172
:1031F0003648008835494988884214DA33480588BA
:10320000408832490880084645800CE02F480088F5
:103210002E494988884206DD2C48058840882B497C
:103220000880084645802949488900F0A3F9002014
:1032300000F09AF925494989491C88B200F09AF9A9
:10324000002000F091F921494989891C88B200F0D9
:1032500091F91E490988491EC1F30F2000F084F935
:103260001A494989C91C88B200F084F917490978BC
:10327000491EC8B200F078F91449888900F07AF93B
:10328000002000F071F911498989491C88B200F0C9
:1032900071F9002000F068F90C498989891C88B20D
:1032A00000F068F909494988491EC1F30F2000F070
:1032B0005BF906498989C91C88B200F05BF90349AA
:1032C0008978491EC8B200F04FF970BD8204002011
:1032D00000B502460B461049488900F04BF9101220
:1032E00000F042F90C494989491C88B200F042F9C2
:1032F000D0B200F039F90849888900F03BF918127A
:1033000000F032F904498989491C88B200F032F989
:10331000D8B200F029F900BD820400202DE9F84F51
:1033200080460E4617461C46B3462046E31704EB7C
:103330005373DB1021464FEAE47C04EB5C7C4FEADC
:10334000EC0CA4EBCC0CBCF1000F02D04FF0010C44
:1033500001E04FF0000C6344224604EBD27C4FEABC
:103360006C0C03FB0CF3DBB20093A7F12000C7B297
:10337000002556E00C2C07D107EB47002B4901EB49
:10338000800010F8059013E0102C05D1284800EBC0
:10339000071010F805900BE0182C07D107EBC700B9
:1033A000244901EB800010F8059001E0BDE8F88F9A
:1033B0004FF0000A2FE009F0800030B11E4802886B
:1033C00031464046FEF7DAFD07E00A9828B91B4867
:1033D000028831464046FEF7D1FD4FEA49604FEA88
:1033E0001069701C86B216484088B04200DCDDE7E8
:1033F000A6EB0B00A0420AD15E4608F101001FFABD
:1034000080F80F480088404500DCCFE706E00AF16D
:10341000010000F0FF0ABAF1080FCCDB00BF681C06
:10342000C5B200988542A5DB00BFBFE770A10108C7
:10343000E4A50108D4AB01080A0000200C0000201C
:10344000820400202DE9F84704460D46904699462F
:10345000DDE9096704F0FF0A08EB04001FFA80F8B1
:1034600009EB05001FFA80F916E0444502DB5446DB
:10347000A81985B24D4500DB14E0002000903A7891
:10348000334629462046FFF749FF304606EBD07108
:1034900004EB61018CB27F1C38787E2802DC38781E
:1034A0002028E2DA00BFBDE8F8872DE9FF4F82B09F
:1034B000064692461F46DDE90F4800200190002590
:1034C0004DE0781B401EC1B20A20FFF725FEBAFB73
:1034D000F0F00A21B0FBF1F201FB1209019850BB98
:1034E000781EA84227DDB9F1000F22D108F0800034
:1034F00078B108F00100A34604EBDB71491001FB31
:103500000561009088B2234630220399FFF706FF39
:103510000EE008F00100A34604EBDB71491001FB4B
:103520000561009088B2234620220399FFF7F6FE3A
:1035300013E00120019008F00100A34604EBDB71C9
:10354000491001FB0561009088B209F13001CAB24F
:1035500023460399FFF7E2FE00BF681CC5B2BD42D7
:10356000AFDB06B0BDE8F08F01490880704700006E
:103570000008006C0149088070470000FE07006CDD
:103580000248008902490880704700008204002038
:10359000FE07006C024A1080921C118070470000E8
:1035A000FE07006C1848806940F0080016498861E1
:1035B0000846806940F0400088611448006820F4A3
:1035C0007000124908600846006840F44010086026
:1035D0000E480C30006840F020000C490C310860A7
:1035E0000B48006820F4700009490860084600682C
:1035F00040F44010086006480C30006840F020009D
:1036000003490C310860704700100240000C014073
:103610000018014000B5002015490861C860142059
:10362000486100208861C8610846006840F00100D8
:103630000860084640680F4908400D494860084640
:1036400000680D4908400A4908600846006820F4EF
:10365000802008600846406820F4FE004860002092
:10366000886000214FF0006000F058F800BD0000B5
:10367000001002400000FFF8FFFFF6FE2DE9F041C8
:103680000746884614461D46284600F033F8C5F123
:10369000040007FA00F60F20284100EA080006435C
:1036A00006F00F06E21704EBD2625211920002F10B
:1036B000E022D2F800212146E31704EBD3635B112B
:1036C000A4EB431C012303FA0CF31A432046E3172F
:1036D00004EBD3635B119B0003F1E023C3F80021EB
:1036E0000348005D40EA061001490855BDE8F08135
:1036F00000E400E00146072323EA01021202054B21
:1037000018684FF6FF031840034B18431043014B52
:10371000186070470CED00E00000FA05024A0A400C
:103720000243024B1A60704780FFFF1F08ED00E064
:1037300000BFFEE730B505460C462246002128466C
:1037400000F001F830BD2DE9F04105460B469446E6
:103750000027002402E03F021F43641C042CFAD31C
:10376000604605F00306294646B1344603E001F8F9
:10377000013B401E641C08B1042CF8D30A4601E04A
:1037800080C2001F0428FBD2114602E001F8013B71
:10379000401E0028FAD1BDE8F08170471548164850
:1037A00016481748174818481848194819481A4819
:1037B0001A481B481B481C481C481D481D481E48E9
:1037C0001E481F481F4820482048214821482248B9
:1037D0002248234823482448244825482548264889
:1037E000264827482748284828482948294800BF0C
:1037F00070470000D0B9010830B9010834B9010898
:1038000038B901083CB9010840B9010844B90108B8
:1038100048B901084CB9010850B9010854B9010868
:1038200058B901085CB9010860B9010864B9010818
:1038300068B901086CB9010870B9010874B90108C8
:1038400078B901087CB9010880B9010884B9010878
:1038500088B901088CB9010890B9010894B9010828
:1038600098B901089CB90108A0B90108A4B90108D8
:10387000A8B90108ACB90108B0B90108B4B9010888
:10388000B8B90108BCB90108C0B90108C4B9010838
:10389000C8B90108CCB9010810B50348006810B1D7
:1038A00001480068804710BD2400002070B5044620
:1038B00000F0B6F8002045490870454908704549B0
:1038C0000870454908604549086045490870454900
:1038D00008704549087045490870454800680A2144
:1038E000B0FBF1F0434908604348006858B14348D1
:1038F000056845B14048066803E0761E0020286050
:103900002D1D002EF9D100203D4908603D49086079
:103910003D4908603D4908603D4908603D490860EF
:103920003D4908603D49087003F032FA03F05AFB44
:10393000204602F0F1FA208800B170BD204602F066
:10394000CDFE208800B1F8E7204602F0EFFE208887
:1039500000B1F2E7204603F007F8208800B1ECE759
:10396000204603F08DFA208800B1E6E7204603F0F8
:10397000C9FC208800B1E0E7204603F0E7FF20887B
:1039800000B1DAE7204602F015FE208800B1D4E746
:10399000204602F033FC208800B1CEE7204604F038
:1039A00039FF208800B1C8E7204603F013FF2088C4
:1039B00000B1C2E7204604F089FF208800B1BCE7CF
:1039C00002F0D2F9FFF7EAFE00BFB6E738000020A8
:1039D0003900002072000020C8000020CC00002028
:1039E00066000020670000206800002078000020AA
:1039F00090B901087400002060B901085CB90108A1
:103A0000180000201C0000202000002024000020BE
:103A1000280000202C00002030000020A6000020FC
:103A20000A4A1168002002E0002204C1401C084A32
:103A300012689042F8D3054A1268054B1B6802EBE6
:103A40008302121F034B1A60704700005CB9010823
:103A500060B90108D000002008480078012800D093
:103A6000704707480078FA2800DBF9E70448007837
:103A7000401C0349087000BFF2E700003900002035
:103A80003800002010B500242E480078012800D00E
:103A900010BD00BFFCF768FB044600BF2A48007851
:103AA00028B900BF2046FCF763FB00BFF0E72648BB
:103AB0000078401E2449087008460078002805DD7B
:103AC00000BF2046FCF754FB00BFE1E71F48007829
:103AD000002805DD00BF2046FCF74AFB00BFD7E702
:103AE00003F042F91A4908700846007800EB4000DC
:103AF000184951F82000184908600846006817491D
:103B00000968884205D100BF2046FCF731FB00BFA1
:103B1000BEE711480068D0F89000401C0E490968C3
:103B2000C1F890000E480068401C0D4908604FF035
:103B300080500C49086000BF2046FCF719FB00BF0D
:103B400000BFA5E7390000203800002072000020E7
:103B500067000020BC1A0020CC000020C800002014
:103B60009C00002004ED00E02DE9F04104460E46E3
:103B70001546002729480078002804DD42F6E16058
:103B80002880BDE8F0811CB945F6C3502880F8E7CD
:103B900000BF00BF00BFFCF7E7FA074600BF00BF49
:103BA0001F480078401C1E49087000BF00BF3846FF
:103BB000FCF7DEFA00BF00BF00BF1A482060666055
:103BC0000020206284F82500A062402084F82400B0
:103BD00004F1080002F07FFF204602F0ADFE12481B
:103BE0000088401C1049088000BF00BF00BFFCF7E0
:103BF000BBFA074600BF00BF09480078401E0849CD
:103C0000087000BF00BF3846FCF7B2FA00BF00BF23
:103C100000BF0020288000BFB3E70000380000206C
:103C2000720000204D555458640000202DE9F047E3
:103C300088B00546894690461C46109E4FF0000A03
:103C4000AB480078002805DD46F2AE10308008B0A1
:103C5000BDE8F0871DB945F6C3503080F7E7B8F1ED
:103C6000000F03D0B8F5004F02D100E004E003E0FC
:103C700045F625603080EAE700BF9E492868884203
:103C800003D045F6C4503080E1E70CB1002020603D
:103C900000BF00BFFCF768FA824600BF00BF95F87E
:103CA0002500C0B99448006828629348006890F8DD
:103CB000370085F82400012085F825000CB1A86A9A
:103CC000206000BF00BF5046FCF752FA00BF00BFA3
:103CD00000203080BBE78849286A0968884212D1F1
:103CE00095F82500401C85F825000CB1A86A2060D5
:103CF00000BF00BF5046FCF73BFA00BF00BF45F2D3
:103D000082703080A3E708F4004050B100BF00BFCC
:103D10005046FCF72DFA00BF00BF46F2B0103080CD
:103D200095E77648007800280ADD00BF00BF5046BE
:103D3000FCF71EFA00BF00BF46F66350308086E7EE
:103D400000BF6E480078401C6C49087000BF00BF7F
:103D50005046FCF70DFA00BF00BF00BF2F6A97F86E
:103D600037006549096891F83710884260DD97F897
:103D7000360008282AD2DFE800F004151E1F1716A7
:103D80002021384603F0B6F95B48006890F8370008
:103D900087F8370097F8370003F006F8384603F045
:103DA00049F944E000BF00BF5348006890F837006D
:103DB00087F837003BE000BF00BF00BF4E480068F7
:103DC00090F83710384602F063FE30E000BF00BFC5
:103DD00000BFFCF7C9F9824600BF00BF4748007822
:103DE000401E4649087008460078A0B9444800883B
:103DF000002809DD00BF00BF5046FCF7B9F900BF3D
:103E000000BF03F0A5F90DE000BF00BF5046FCF76E
:103E1000AFF900BF06E000BF00BF5046FCF7A8F9AD
:103E200000BF00BF00BF46F62D6030800FE700BF27
:103E30004B4604222946684602F0A2FD00BF00BF9F
:103E400000BFFCF791F9824600BF00BF2B48007805
:103E5000401E2A49087000BF00BF5046FCF788F991
:103E600000BF00BF00BF00F063FC00BF00BFFCF755
:103E70007BF9824600BF00BF1F48006890F83500FC
:103E800030B101280CD002281AD0032821D110E02B
:103E90001CB119480068006C2060002030801CE0D4
:103EA0001CB115480068006C206046F2A9103080F3
:103EB00013E00CB10020206047F2D92030800CE0E4
:103EC0001CB10D480068006C206045F6C25030807F
:103ED00003E046F62E60308000BF00BF00BF00BF89
:103EE0005046FCF745F900BF00BF00BFAFE6000039
:103EF000380000204D555458C800002072000020A2
:103F0000440000202DE9F84F04460F4615464FF0B7
:103F1000000A88480078002804DD46F20E20288038
:103F2000BDE8F88F1CB945F6C3502880F8E71FB1EB
:103F3000B7F5004F02D100E000BF03E045F6256071
:103F40002880EDE700BF7C492068884203D045F611
:103F5000C4502880E4E700BF00BFFCF705F98246A3
:103F600000BF00BF7549206A096888420AD000BFB7
:103F700000BF5046FCF7FCF800BF00BF45F281705F
:103F80002880CDE700BF6E480078401C6C4908705F
:103F900000BF00BF5046FCF7EBF800BF00BF00BFFA
:103FA0004FF000092534C4F803902078401E20709B
:103FB00014F82509002830DD00BF00BF00BFFCF762
:103FC000D3F8824600BF00BF5D480078401E5C49C0
:103FD000087008460078A0B95A480088002809DD12
:103FE00000BF00BF5046FCF7C3F800BF00BF03F09E
:103FF000AFF80DE000BF00BF5046FCF7B9F800BFB6
:1040000006E000BF00BF5046FCF7B2F800BF00BF9B
:1040100000BF45F28370288082E704F10808B8F8F1
:10402000080098BB0020206284F8250000BF00BF74
:1040300000BFFCF799F8824600BF00BF40480078F7
:10404000401E3F49087008460078A0B93D480088E6
:10405000002809DD00BF00BF5046FCF789F800BF0B
:1040600000BF03F075F80DE000BF00BF5046FCF73D
:104070007FF800BF06E000BF00BF5046FCF778F8AD
:1040800000BF00BF00BF0020288049E7FFE72B48A2
:10409000006890F8370094F82410884219D0274817
:1040A000006803F027F894F824002449096881F88F
:1040B00037002249096891F8370002F075FE1F4861
:1040C000006802F0D7FF1D48006890F837001E49CD
:1040D0000870D8F800008668266296F8370084F8E1
:1040E0002400012084F8250000231A46314620468A
:1040F000CDF8009002F0C3FD00BF00BF00BFFCF789
:1041000033F8824600BF00BF0D480078401E0C49BE
:10411000087000BF00BF5046FCF72AF800BF00BF80
:1041200000BF07F4004008B900F002FB002028801F
:1041300000BFF5E6380000204D555458C800002057
:104140007200002044000020660000202DE9F041AC
:1041500004460F4616461D464FF000082A480078D0
:10416000002804DD42F6E1602880BDE8F0811CB93A
:1041700045F6C3502880F8E71EB946F294502880CF
:10418000F3E700BF00BF00BFFBF7EEFF804600BFB4
:1041900000BF1E480078401C1C49087000BF00BFCB
:1041A0004046FBF7E5FF00BF00BF00BF1848206096
:1041B0006760314604F1200002F038FB04F108008A
:1041C00002F089FC204602F02BFE12480088401CB9
:1041D0001049088000BF00BF00BFFBF7C5FF804645
:1041E00000BF00BF09480078401E0849087000BFA2
:1041F00000BF4046FBF7BCFF00BF00BF00BF002070
:10420000288000BFB1E700003800002072000020C5
:1042100051554555700000202DE9FC5F0546884644
:1042200014460020009056480078002805DD43F22F
:10423000C92020800020BDE8FC9F25B945F6C35069
:1042400020800020F7E7B8F1000F03D0B8F1010F8C
:1042500002D100E000BF04E045F625602080002088
:10426000E9E700BF47492868884204D045F6C450B2
:1042700020800020DFE700BF00BFFBF775FF009044
:1042800000BF00BF05F10809B9F808603746B8F16A
:10429000000F03D0B8F1010F64D120E0A7B9284680
:1042A00002F0D6FD38480088401E3749088028466D
:1042B00002F09EFD00BF00BF0098FBF759FF00BF52
:1042C00000BF0020208009E000BF00BF0098FBF77E
:1042D0004FFF00BF00BF47F25F1020804DE000BFDE
:1042E0002A480078401C2949087000BF00BF009888
:1042F000FBF73EFF00BF00BF00BF002001900AE0B7
:10430000D9F800A0DAF808B059462846019A02F018
:1043100053FC701E86B2002EF2D1284602F098FDA2
:1043200019480088401E18490880284602F060FDA0
:1043300000BF00BF00BFFBF717FF009000BF00BF2A
:1043400012480078401E1149087000BF00BF009855
:10435000FBF70EFF00BF00BF00BF00F0E9F900202F
:1043600020800AE000BF00BF0098FBF701FF00BFFC
:1043700000BF45F62560208000BF00BF38465AE7E1
:104380003800002051554555700000207200002073
:104390002DE9F04105460C460026324800780028F9
:1043A00005DD4FF46C5020800020BDE8F08125B978
:1043B00045F6C35020800020F7E72B492868884243
:1043C00004D045F6C45020800020EEE700BF00BFB7
:1043D00000BFFBF7C9FE064600BF00BF23480078B8
:1043E000401C2249087000BF00BF3046FBF7C0FEEA
:1043F00000BF00BF00BF05F1200002F0C1F9074671
:1044000000BF00BF00BFFBF7AFFE064600BF00BF06
:1044100016480078401E1549087008460078A0B973
:1044200013480088002809DD00BF00BF3046FBF7B5
:104430009FFE00BF00BF02F08BFE0DE000BF00BF7B
:104440003046FBF795FE00BF06E000BF00BF3046D8
:10445000FBF78EFE00BF00BF00BF00202080384663
:10446000A3E7000038000020515545557200002098
:10447000440000202DE9F04F89B007468946904658
:104480001E46DDE912544FF0000B784800780028F2
:1044900006DD46F2AE102080002009B0BDE8F08FA6
:1044A00027B945F6C35020800020F6E726B946F22A
:1044B000D52020800020F0E7B8F1000F03D0B8F538
:1044C000004F02D100E000BF04E045F625602080E7
:1044D0000020E2E700BF66493868884204D045F60C
:1044E000C45020800020D8E70DB10020286000BF14
:1044F00000BFFBF739FE834600BF00BF23462A46B4
:10450000314607F1200002F05DF98246208840B96B
:1045100000BF00BF5846FBF72BFE00BF00BF504650
:10452000BBE708F4004058B100BF00BF5846FBF796
:104530001FFE00BF00BF46F2B01020800020ACE795
:104540004C48007800280BDD00BF00BF5846FBF741
:104550000FFE00BF00BF46F66350208000209CE79E
:1045600000BF44480078401C4249087000BF00BFAB
:104570005846FBF7FDFD00BF00BF00BF4B460522BC
:10458000394601A802F0FCF900BF00BF00BFFBF7ED
:10459000EBFD834600BF00BF36480078401E35491A
:1045A000087000BF00BF5846FBF7E2FD00BF00BF28
:1045B00000BF00F0BDF800BF00BFFBF7D5FD83468C
:1045C00000BF00BF2C48006890F8350030B10128CA
:1045D00015D002282AD0032835D11DE026480068CE
:1045E000D0F85CA024480068B0F8600030801DB1AD
:1045F00021480068006C2860002020802BE04FF0EC
:10460000000A002030801DB11B480068006C286043
:1046100046F2A91020801EE04FF0000A00203080F2
:1046200005B1286047F2D920208014E04FF0000A3D
:10463000002030801DB110480068006C286045F6ED
:10464000C250208007E04FF0000A0020308046F67C
:104650002E60208000BF00BF00BF00BF5846FBF7A0
:1046600087FD00BF00BF504617E70000380000205C
:104670005155455572000020C80000202DE9FF4724
:104680000546884691461E460C9C25B945F6C35002
:104690002080BDE8FF87B6F5004F19D009DC9EB138
:1046A000102E12D0B6F5007F10D0B6F5047F13D1CE
:1046B0000DE0A6F50040103858B1B0F5F87F09D0EC
:1046C000B0F5007F08D106E000BF00BF00BF00BF0B
:1046D00000BF00BF00BF03E045F625602080D8E79B
:1046E00000BF11492868884203D045F6C450208095
:1046F000CFE700270D48007800280ADD00204B4650
:10470000424629468DE8C1000394074801F0AEFDFA
:10471000BFE733464A4641462846CDE9007402F0D9
:10472000BBFB00BFB5E700005155455538000020E0
:1047300010B5002420480078002800DD10BD1F4877
:104740000078002800DDF9E700BFFBF70DFD044607
:1047500000BF02F009FB1A4908700846007800EB18
:104760004000184951F820001749086008460068C1
:1047700016490968884205D100BF2046FBF7F8FCBE
:1047800000BFDBE710480068D0F89000401C0E49DD
:104790000968C1F890000E480068401C0C49086088
:1047A0004FF080500B49086000BF2046FBF7E0FC4B
:1047B00000BF00BFC2E700003800002072000020E8
:1047C00067000020BC1A0020CC000020C800002098
:1047D0009C00002004ED00E070B504460025174859
:1047E0000078002803DD46F66250208070BD144832
:1047F0000078012803D045F689602080F6E711484B
:104800000078FA2803DB45F209202080EEE700BF9C
:1048100000BFFBF7A9FC054600BF00BF09480078B0
:10482000401C0849087000BF00BF2846FBF7A0FCE9
:1048300000BF00BF0020208000BFD7E73800002065
:1048400039000020720000202DE9F04105460C4699
:104850001646002700BF00BFFBF786FC074600BFD7
:1048600000BF012D03D000200D49087002E0012097
:104870000B49087014B10B48046006E00A48006850
:104880000A21B0FBF1F00749086000BF00BF3846BD
:10489000FBF76EFC00BF00BF00203080BDE8F08158
:1048A000780000207400002090B9010870B504461B
:1048B00000251F480078002803DD46F6655020805B
:1048C00070BD1C480078012803D045F6896020801F
:1048D000F6E71948007818B946F664502080EFE7EB
:1048E00000BF00BFFBF740FC054600BF00BF1248F9
:1048F0000078401E104908700846007800280ADD3C
:1049000000BF00BF2846FBF733FC00BF00BF46F6E0
:1049100063502080D4E700BF00BF2846FBF728FC87
:1049200000BF00BFFFF704FF0020208000BFC7E7E3
:104930003800002039000020720000202DE9F041ED
:1049400004460E4617461D464FF0000826480078DC
:10495000002804DD42F6E1602880BDE8F0811CB942
:1049600045F6C3502880F8E700BF00BF00BFFBF743
:10497000FBFB804600BF00BF1C480078401C1B4961
:10498000087000BF00BF4046FBF7F2FB00BF00BF4E
:1049900000BF17482060276200206062666004F153
:1049A000080002F098F8204602F07CFC11480088CC
:1049B000401C1049088000BF00BF00BFFBF7D4FBBC
:1049C000804600BF00BF09480078401E07490870B4
:1049D00000BF00BF4046FBF7CBFB00BF00BF00BFDE
:1049E0000020288000BFB8E73800002072000020B7
:1049F00053454D41800000202DE9FC5F0546884667
:104A000014460020009056480078002805DD43F247
:104A1000C92020800020BDE8FC9F25B945F6C35081
:104A200020800020F7E7B8F1000F03D0B8F1010FA4
:104A300002D100E000BF04E045F6256020800020A0
:104A4000E9E700BF47492868884204D045F6C450CA
:104A500020800020DFE700BF00BFFBF785FB009050
:104A600000BF00BF05F10809B9F808603746B8F182
:104A7000000F03D0B8F1010F64D120E0A7B9284698
:104A800002F028FC38480088401E37490880284634
:104A900002F0F4FB00BF00BF0098FBF769FB00BF0A
:104AA00000BF0020208009E000BF00BF0098FBF796
:104AB0005FFB00BF00BF47F25F1020804DE000BFEA
:104AC0002A480078401C2949087000BF00BF0098A0
:104AD000FBF74EFB00BF00BF00BF002001900AE0C3
:104AE000D9F800A0DAF808B059462846019A02F031
:104AF00063F8701E86B2002EF2D1284602F0EAFB5F
:104B000019480088401E18490880284602F0B6FB64
:104B100000BF00BF00BFFBF727FB009000BF00BF36
:104B200012480078401E1149087000BF00BF00986D
:104B3000FBF71EFB00BF00BF00BFFFF7F9FD002021
:104B400020800AE000BF00BF0098FBF711FB00BF08
:104B500000BF45F62560208000BF00BF38465AE7F9
:104B60003800002053454D41800000207200002095
:104B70002DE9F04788B00646894690461C46109DB0
:104B80004FF0000A6E480078002806DD46F2AE10AD
:104B90002880002008B0BDE8F08726B945F6C3504C
:104BA00028800020F6E7B8F1000F03D0B8F5004FD9
:104BB00002D100E000BF04E045F625602880002017
:104BC000E8E700BF5F493068884204D045F6C4502A
:104BD00028800020DEE70CB10020206000BF00BF6D
:104BE000FBF7C2FA824600BF00BF306A88B1306A64
:104BF000401E30620CB1706A2060376A00BF00BF8F
:104C00005046FBF7B5FA00BF00BF002028803846A9
:104C1000C0E708F4004060B1376A00BF00BF5046EB
:104C2000FBF7A6FA00BF00BF46F2B0102880384656
:104C3000B0E74548007800280BDD00BF00BF5046B4
:104C4000FBF796FA00BF00BF46F6635028800020AD
:104C5000A0E700BF3C480078401C3B49087000BFFB
:104C600000BF5046FBF784FA00BF00BF00BF4B46B1
:104C700006223146684601F083FE00BF00BF00BF38
:104C8000FBF772FA824600BF00BF2F480078401E33
:104C90002D49087000BF00BF5046FBF769FA00BFFE
:104CA00000BF00BFFFF744FD00BF00BFFBF75CFA89
:104CB000824600BF00BF2548006890F8350030B13B
:104CC00001280CD002281AD0032821D110E01CB1F1
:104CD0001E480068006C20600020288024E01CB181
:104CE0001A480068006C206046F2A91028801BE07A
:104CF0000CB10020206047F2D920288014E01CB1BC
:104D000012480068006C206045F6C25028800BE015
:104D100046F62E60288000BF00BF5046FBF728FAF9
:104D200000BF00BF002035E700BF376A00BF00BFEB
:104D30005046FBF71DFA00BF00BF38462AE70000C7
:104D40003800002053454D4172000020C80000206B
:104D50002DE9FF4105460E46144635B945F6C350C8
:104D60002080002004B0BDE8F0814EB1B6F5007F90
:104D700007D0B6F5004F05D0B6F5024F04D102E0DA
:104D800000BF00BF00BF04E045F625602080002082
:104D9000E8E700BF11492868884204D045F6C450AE
:104DA00020800020DEE700270D48007800280BDD7A
:104DB00000200346024629468DE8C10003940748B7
:104DC00001F054FA0020CDE723463A463146284602
:104DD00002F0A4FA80464046C4E7000053454D4126
:104DE0003800002010B5044612480078E8B901F0F8
:104DF000BBFF1149087008460078104908700E483A
:104E0000007800EB40000E4951F820000D49086081
:104E1000084600680C490860012006490870FCF744
:104E2000FFF843F69920208002E045F68A60208052
:104E300010BD00003900002067000020660000203F
:104E4000BC1A0020CC000020C80000202DE9F04151
:104E500007464FF0000800BF00BFFBF785F980460A
:104E600000BF00BF00203A4908603A4908803A492B
:104E700008803A4908603A4908603A4908603A4966
:104E8000088100BF00BF4046FBF772F900BF00BFBA
:104E900000BF00BFFBF768F9804600BF00BF334882
:104EA000046800BF00BF4046FBF762F900BF00BFC7
:104EB0001DE000BF00BFFBF757F9804600BF00BFF1
:104EC000002044F8780F2063A061A082E082606235
:104ED000A0622062783C04F16406B081D4F8B84046
:104EE00000BF00BF4046FBF743F900BF00BF002CE6
:104EF000DFD100BF00BFFBF737F9804600BF00BF1E
:104F00001B48056800BF00BF4046FBF731F900BFF2
:104F100000BF12E000BF00BFFBF726F9804600BFCC
:104F200000BF05F120060020B081AD6900BF00BFC1
:104F30004046FBF71DF900BF00BF002DEAD103F08A
:104F40004BFB03F0BFFD00203880BDE8F08100007E
:104F50004C00002046000020860000209800002021
:104F6000AC000020B8000020B01A0020A0000020F3
:104F70006C000020F8B5044600266946324800F06F
:104F8000BDFCBDF8000018B1BDF800002080F8BDE0
:104F90006A460021022000F011FDBDF8000018B1A2
:104FA000BDF800002080F2E700BF00BFFBF7DCF88F
:104FB000064600BF00BF00202449086000BF00BFB4
:104FC0003046FBF7D5F800BF00BF00252048006839
:104FD00020490968884205D91D4800681D490968AB
:104FE000B0FBF1F525B91A4800680A21B0FBF1F5CC
:104FF0006A460021284600F0E1FC6946124800F0AC
:1050000063FABDF8000018B1BDF800002080BEE7CB
:1050100000BF00BFFBF7A8F8064600BF00BF002096
:105020000D490860094800680C49086001200C49D6
:10503000087000BF00BF3046FBF79AF800BF00BF02
:105040000020208000BFA2E73C1F00208800002035
:1050500090B9010878B90108980000208C00002060
:105060009400002010B50348006810B101480068A2
:10507000804710BD280000202DE9FF4F87B004466F
:105080009046DDE91BA5DDE91496179F00200390EB
:1050900087480078002805DD47F24A1028800BB0C9
:1050A000BDE8F08F1CB947F2AD102880F7E7B8F1E2
:1050B000000F03D147F24F102880F0E71EB946F6E3
:1050C0002F602880EBE77B480068874203D246F6D2
:1050D00030602880E3E71698B84203D346F6316083
:1050E0002880DCE7B9F1400F03D346F27320288013
:1050F000D5E7B9F1000F06D16F48844203D046F2DC
:1051000073202880CBE7B9F13F0F06D16B4884426A
:1051100003D046F273202880C1E7204602F026FC27
:10512000002028800AF0010090B10AF0020078B156
:1051300005960020069008E000210598016005987A
:10514000001D05900698401C06900698B842F3D3BF
:10515000169806EB80000490CDE9007A324640466E
:10516000049B0A9900F06AFB0590C4F828800A980D
:10517000E0620898206284F83790059820600498CF
:10518000A06019986065199818B94D480068A06525
:1051900001E01998A0651A9860606662A763A4F898
:1051A0003CA04FF0000B08E0002104F17C0040F827
:1051B0002B100BF1010000F0FF0BBBF1000FF3D03F
:1051C00004F16400189901F031FB204600F082F8E8
:1051D00000BF00BF00BFFAF7C7FF039000BF00BFCA
:1051E00038480078401C3749087000BF00BF03985A
:1051F000FAF7BEFF00BF00BF00BF94F8370001F010
:10520000D3FD204601F036FF204602F065FB2E4814
:105210000088401C2C4908802C48007801282DD09B
:1052200000BF00BF00BFFAF79FFF039000BF00BFA1
:1052300024480078401E2349087008460078A0B929
:1052400023480088002809DD00BF00BF0398FAF753
:105250008FFF00BF00BF01F07BFF0DE000BF00BF6C
:105260000398FAF785FF00BF06E000BF00BF039870
:10527000FAF77EFF00BF00BF00BF10E700BF00BF0E
:1052800000BFFAF771FF039000BF00BF0D48007820
:10529000401E0C49087000BF00BF0398FAF768FF72
:1052A00000BF00BF00BFFFF743FA00BFF7E60000F2
:1052B000380000208CB90108F019002030190020B6
:1052C0007400002072000020A4000020390000209B
:1052D0004400002010B504460348006818B1204679
:1052E00001490968884710BD1800002070B50446C0
:1052F0000D46002667480078002803DD47F24E106F
:10530000288070BD6448844203D147F24C10288045
:10531000F7E76248844203D147F24D102880F0E756
:105320007CB900BF00BFFAF71FFF064600BF00BFF1
:105330005B48046800BF00BF3046FAF719FF00BFA2
:1053400000BF00BF00BF00BFFAF70EFF064600BF58
:1053500000BF54480078401C5249087000BF00BF8D
:105360003046FAF705FF00BF00BF00BF94F83600D3
:1053700008282DD2DFE800F004090E10080A0F11EA
:10538000204601F0B7FE54E053E000BF204603F092
:1053900007F94EE000BF00BF00BF204603F000F950
:1053A00094F83400082810D2DFE800F0040705085C
:1053B000090A0B0600BF00BF08E000BF00BF00BF26
:1053C00000BF204601F0BFFB00E000BF00BF30E09F
:1053D00000BF00BF00BFFAF7C7FE064600BF00BF10
:1053E00030480078401E2F49087008460078A0B960
:1053F0002D480088002809DD00BF00BF3046FAF7BD
:10540000B7FE00BF00BF01F0A3FE0DE000BF00BF6C
:105410003046FAF7ADFE00BF06E000BF00BF3046E1
:10542000FAF7A6FE00BF00BF00BF46F62D60288039
:1054300067E700BF04F1640001F0A2F9204600F024
:1054400037F8204602F060FA18480088401E1749D5
:105450000880204602F08AFAFF2084F8360000BF58
:1054600000BF00BFFAF780FE064600BF00BF0D4830
:105470000078401E0B49087000BF00BF3046FAF7A5
:1054800077FE00BF00BF00BF00202880FFF750F963
:1054900000BF36E73800002030190020F019002046
:1054A000C80000207200002044000020A40000205A
:1054B00010B504460348006818B120460149096840
:1054C000884710BD1C0000207FB504460D4600260D
:1054D00000BF00BFFAF748FE064600BF00BF1CB180
:1054E0001548006884420AD100BF00BF3046FAF771
:1054F0003FFE00BF00BF47F2571028807FBD00BFAE
:1055000000BF3046FAF734FE00BF00BF0B480078FA
:1055100000280BDD00200090019003460246214642
:10552000CDE90205064800F0A1FEE7E7294620463E
:1055300002F08EFB00BFE1E7C80000203800002029
:105540005452455310B504460348006818B120462C
:1055500001490968884710BD200000202DE9F04767
:1055600080460E4614461D464FF000097B480078E1
:10557000002805DD46F2AE1028800020BDE8F08747
:105580001EB1B6F5004F02D100E000BF04E045F6C1
:10559000256028800020F1E700BF0CB100202060CA
:1055A00000BF00BFFAF7E0FD814600BF00BF6C48B6
:1055B0000068406C98B36A480068406C401E6849B7
:1055C0000968486466480068476C1CB16448006814
:1055D000006C206062480068006C404260490968C5
:1055E000C1F8A4005E480068D0F8A8005C490968CA
:1055F000D1F8A410884207D259480068D0F8A40016
:1056000057490968C1F8A80000BF00BF4846FAF72B
:10561000AFFD00BF00BF002028803846AEE7FFE79F
:1056200006F4004058B100BF00BF4846FAF7A0FD9D
:1056300000BF00BF46F2B010288000209EE7494816
:10564000007800280BDD00BF00BF4846FAF790FD48
:1056500000BF00BF46F66350288000208EE700BFE1
:1056600040480078401C3F49087000BF00BF4846D2
:10567000FAF77EFD00BF00BF00BF434607220021AE
:10568000084601F07DF900BF00BF00BFFAF76CFDCE
:10569000814600BF00BF33480078401E3149087082
:1056A00000BF00BF4846FAF763FD00BF00BF00BF60
:1056B000FFF73EF800BF00BFFAF756FD814600BF76
:1056C00000BF2748006890F8350020B1012824D099
:1056D000032832D12AE0ECB121480068006C206038
:1056E0001F480068006C40421D490968C1F8A400C9
:1056F0001B480068D0F8A80019490968D1F8A4101F
:10570000884207D216480068D0F8A40014490968F6
:10571000C1F8A8000020288013E01CB110480068E0
:10572000006C206046F2A91028800AE00CB100202D
:10573000206047F2D920288003E046F62E602880BA
:1057400000BF00BF06480068476C00BF00BF484666
:10575000FAF70EFD00BF00BF38460FE73800002003
:10576000C8000020720000202DE9F04705460E46D3
:1057700017461C464FF0000A2E480078002804DD2A
:1057800047F259102080BDE8F0871EB946F2D520B7
:105790002080F8E71FB946F2D5202080F3E700BF4C
:1057A00000BFFAF7E1FC824600BF00BF0DB92248F6
:1057B0000568286868B900BF00BF5046FAF7D8FCF2
:1057C00000BF00BF00203060386047F252102080D8
:1057D000D9E795F83C0000F0010068B900BF00BFB0
:1057E0005046FAF7C5FC00BF00BF002030603860AB
:1057F00047F254102080C6E700BF00BF5046FAF7BA
:10580000B7FC00BF00BF4FF00008D5F8249003E0BC
:1058100009F1040908F10108D9F800000028F7D0BF
:10582000C6F80080A86BA0EB08003860002020803C
:1058300000BFA8E738000020C8000020F0B50446EB
:10584000DDE9055602EB85004FF0807C071F3846E6
:10585000C7F800C0071F38463C60DFF89CC0071F30
:105860003846C7F800C04FF0123C071F3846C7F84B
:1058700000C04FF0033C071F3846C7F800C04FF088
:10588000023C071F3846C7F800C0071F38463B6078
:10589000071F384639604FF0113C071F3846C7F8DC
:1058A00000C04FF0103C071F3846C7F800C04FF04B
:1058B000093C071F3846C7F800C04FF0083C071FD7
:1058C0003846C7F800C04FF0073C071F3846C7F8F6
:1058D00000C04FF0063C071F3846C7F800C04FF025
:1058E000053C071F3846C7F800C04FF0043C071FAF
:1058F0003846C7F800C0F0BD917D00087FB5054669
:105900000C461248854203D147F25B1020807FBDD0
:105910000F48854203D147F25C102080F7E70D481D
:10592000007800280BDD002000900190034602461D
:105930002946CDE90204084800F098FCE7E7214633
:10594000284602F093FC00BFE1E700003019002078
:10595000F0190020380000205453555310B5144856
:10596000006810B1124800688047002411480068A0
:1059700011490968884215D00E480068D0F898008F
:10598000201A0C490968C1F894000A480068D0F848
:105990009C0008490968D1F8941008440549096831
:1059A000C1F89C0004480068C0F8984010BD000091
:1059B0002C000020C8000020CC0000202DE9F04180
:1059C00005460E46144600273F480078002804DDAF
:1059D00047F275202080BDE8F0813C48007800281F
:1059E00003DD46F663502080F5E736B1022E05D080
:1059F000042E0AD0082E09D101E000BF00BF1DB956
:105A000047F27E202080E6E704E003E045F62560CB
:105A10002080E0E700BF00BF00BF00BFFAF7A4FB93
:105A2000074600BF00BF29480078401C274908707E
:105A300000BF00BF3846FAF79BFB00BF00BF00BFA6
:105A400001202349096881F8360023463246294659
:105A50001F48006802F0C6FC2088A8B100BF00BF44
:105A600000BFFAF781FB074600BF00BF1748007868
:105A7000401E1649087000BF00BF3846FAF778FB91
:105A800000BF00BF00BFA6E71148006801F032FB6D
:105A900000BF00BF00BFFAF767FB074600BF00BFAB
:105AA0000A480078401E0949087000BF00BF384608
:105AB000FAF75EFB00BF00BF00BFFEF739FE002013
:105AC000208000BF87E7000038000020720000201F
:105AD000C80000202DE9FF5F05460E461746984690
